:100000006F0000486F00C007000000000000000003
:10001000F1A000000000000000000000000000004F
:1000200009A2000000000000000000000000000025
:1000300025AA0000000000000000000000000000F1
:1000400000000000ADA2000075A20000000000004A
:1000500000000000000000000000000000000000A0
:1000600000000000D9AA000021AC0000A9AC0000EB
:1000700071AC0000F9AC000005A60000000085A6E8
:1000800019710100130000001300000013000000AC
:1000900006C00AC20EC412C616C81ACA1ECC22CE88
:1000A00026D02AD22ED432D636D83ADA3EDC42DEF8
:1000B000C6C0CAC2CEC4D2C6D6C8DACADECCE2CE68
:1000C000E6D0EAD2EED4F2D6F6D8FADAFEDC732520
:1000D0002034F3251034EF008051A9A6197106C011
:1000E0000AC20EC412C616C81ACA1ECC22CE26D008
:1000F0002AD22ED432D636D83ADA3EDC42DEC6C018
:10010000CAC2CEC4D2C6D6C8DACADECCE2CEE6D0E7
:10011000EAD2EED4F2D6F6D8FADAFEDCEF00E04B03
:1001200011A6197106C00AC20EC412C616C81ACA90
:100130001ECC22CE26D02AD22ED432D636D83ADAC7
:100140003EDC42DEC6C0CAC2CEC4D2C6D6C8DACAF7
:10015000DECCE2CEE6D0EAD2EED4F2D6F6D8FADAA7
:10016000FEDCEF0060437DAC197106C00AC20EC40C
:1001700012C616C81ACA1ECC22CE26D02AD22ED417
:1001800032D636D83ADA3EDC42DEC6C0CAC2CEC467
:10019000D2C6D6C8DACADECCE2CEE6D0EAD2EED4F7
:1001A000F2D6F6D8FADAFEDCEF00804DA5AC197174
:1001B00006C00AC20EC412C616C81ACA1ECC22CE67
:1001C00026D02AD22ED432D636D83ADA3EDC42DED7
:1001D000C6C0CAC2CEC4D2C6D6C8DACADECCE2CE47
:1001E000E6D0EAD2EED4F2D6F6D8FADAFEDCEF00A8
:1001F00060490DAC197106C00AC20EC412C616C8F9
:100200001ACA1ECC22CE26D02AD22ED432D636D826
:100210003ADA3EDC42DEC6C0CAC2CEC4D2C6D6C8B6
:10022000DACADECCE2CEE6D0EAD2EED4F2D6F6D806
:10023000FADAFEDCEF00E044F5A2197106C00AC24A
:100240000EC412C616C81ACA1ECC22CE26D02AD276
:100250002ED432D636D83ADA3EDC42DEC6C0CAC226
:10026000CEC4D2C6D6C8DACADECCE2CEE6D0EAD256
:10027000EED4F2D6F6D8FADAFEDCEF0080415DA2C9
:10028000197106C00AC20EC412C616C81ACA1ECCFC
:1002900022CE26D02AD22ED432D636D83ADA3EDC36
:1002A00042DEC6C0CAC2CEC4D2C6D6C8DACADECC06
:1002B000E2CEE6D0EAD2EED4F2D6F6D8FADAFEDC16
:1002C000EF00003D85A2197106C00AC20EC412C615
:1002D00016C81ACA1ECC22CE26D02AD22ED432D686
:1002E00036D83ADA3EDC42DEC6C0CAC2CEC4D2C676
:1002F000D6C8DACADECCE2CEE6D0EAD2EED4F2D666
:10030000F6D8FADAFEDCEF00803829AA197106C0A7
:100310000AC20EC412C616C81ACA1ECC22CE26D0D5
:100320002AD22ED432D636D83ADA3EDC42DEC6C0E5
:10033000CAC2CEC4D2C6D6C8DACADECCE2CEE6D0B5
:10034000EAD2EED4F2D6F6D8FADAFEDCEF000034C8
:10035000D1A8197106C00AC20EC412C616C81ACA9C
:100360001ECC22CE26D02AD22ED432D636D83ADA95
:100370003EDC42DEC6C0CAC2CEC4D2C6D6C8DACAC5
:10038000DECCE2CEE6D0EAD2EED4F2D6F6D8FADA75
:10039000FEDCEF00802F79A0197106C00AC20EC4DE
:1003A00012C616C81ACA1ECC22CE26D02AD22ED4E5
:1003B00032D636D83ADA3EDC42DEC6C0CAC2CEC435
:1003C000D2C6D6C8DACADECCE2CEE6D0EAD2EED4C5
:1003D000F2D6F6D8FADAFEDCEF00002BA1A01971F4
:1003E00006C00AC20EC412C616C81ACA1ECC22CE35
:1003F00026D02AD22ED432D636D83ADA3EDC42DEA5
:10040000C6C0CAC2CEC4D2C6D6C8DACADECCE2CE14
:10041000E6D0EAD2EED4F2D6F6D8FADAFEDCEF0075
:10042000802609A082401241A2413242C242524378
:10043000E243724482541255A2553256C256525764
:10044000E257725886481649A649364AC64A564B5C
:10045000E64B764C865C165DA65D365EC65E565FE4
:10046000E65F09617300203000000000000000001A
:10047000000000000000000000000000000000007C
:10048000735000307350403097000000938080B765
:10049000F322103093F2120063940202F3225030E0
:1004A00093F232000543639D6200F322503093F2D1
:1004B000C2FF17030000130323B56396620439A03B
:1004C00097020000938242B47390523017070000E5
:1004D0001307476B970700009387C76A1708000048
:1004E0001308486A6308F700638607019700000055
:1004F000E7806008971100009381C1E831201381E3
:1005000001C46F00001702908682938701831388CD
:10051000018463830701812093870182138801830B
:10052000638A07010D2893870184138801846383FC
:1005300007011520170700001307C764970700007D
:1005400093874764138801826305F700638307017B
:100550000D2096808280636FF802B368F80093F8EC
:1005600038006349100323A007009107E3CD07FF7C
:1005700082806361F802B368F80093F83800634B37
:1005800010018328070023A0170191071107E3CA70
:1005900007FF11A001A08280411122C406C61304E6
:1005A0000008F3374430E12837C700029386018200
:1005B000832787FF0326C7FF9842D442B74500022E
:1005C0003E97B337F700B296B69798C1DCC1732453
:1005D0004430B240224441018280411106C6612864
:1005E00019671C53B240F59B1CD3410182806354B0
:1005F000050606050581AD476313F50051A08D473B
:100600006313F500D9BF9D476313F50071B7E14748
:100610006313F500BDA8E5476313F50095A8E94706
:100620006313F500ADA0ED476313F50085A0F14716
:100630006313F50099A8F5476313F500B1A0F947D6
:100640006313F50089A0C1476313F50025A8C547CA
:100650006313F5003DA0F3274034F3273034F3272C
:100660005030F3270034F3270030F3271034029082
:10067000828051A182804111294506C621288280AD
:10068000828082808280828082808280828082805A
:100690008280828001A00CC1828008418280368ED7
:1006A000331EBE00337ECE0003230500B28393C306
:1006B000F3FF337373003363C3012320650082802B
:1006C0000841718D3355B50082802310B5008280BA
:1006D000031505008280368E331EBE00337ECE00A9
:1006E00003130500B28393C3F3FF337373003363C3
:1006F000C30123106500828003150500718D3355F9
:10070000B50082802300B500828003050500828049
:10071000368E331EBE00337ECE0003030500B28347
:1007200093C3F3FF337373003363C3012300650086
:10073000828003050500718D3355B500828011E17B
:1007400002909D4763F3D700029089676363F600C8
:10075000029049CD9D4763EBD70889676378F60817
:10076000011152C4138A850022CC4EC62A84AE8958
:1007700052859375F60F06CE26CA4AC8B2843689CA
:10078000513793D5544093F5857FB3E52501138503
:10079000C9008D3F528523203401853F93190501FF
:1007A000084093D9090131058D3793777500619918
:1007B0001375F50F160533E5A9006383A4000290B5
:1007C0006303F9000290084041058137098919E95E
:1007D00023020400F2406244D2444249B249224A10
:1007E00005618280084011050D37F1BF82801DE54B
:1007F00002908DED0290828088404105393705894D
:1008000065DD8345040088400504ED3D8347040011
:10081000E5F7B2402244924441018280E1DD41117A
:1008200022C426C206C6AA842E84CDB78280411176
:1008300022C42A8426C24AC006C60CC0AE8450C157
:10084000138905082685814591046D3DE39C24FFAD
:100850005C4005476380E702A1C30947639BE70645
:1008600008402244B24092440249FD551305050850
:10087000410115B50840C1649385F4FF13050508CF
:10088000A93508402244B24002499385F4FF9244BE
:1008900013054508410115BD08409305F00F1305E8
:1008A00005088D3508409305F00F13054508993D5F
:1008B00008409305F00F13058508A9350840224428
:1008C000B240924402499305F00F1305C508410157
:1008D00015BD0290B24022449244024941018280F7
:1008E0005C41411122C406C626C24AC005472A847B
:1008F000638FE70095CF09476396E70608412244D6
:10090000B240924402491305050A410179B30841F6
:100910001305050A753BAA8408401305450A4D3B9B
:100920004205458DB24022449244024941018280F1
:1009300008411305050A693BAA8408401305450AC6
:10094000413B2A89084022091305850A5133420593
:100950003369A9000840B36499001305C50A8D3BAB
:100960006205C1B70290014575BF5C41411122C4C7
:1009700026C206C605472A84AE846384E7029DCF5B
:100980000947639AE70608411305050A29332285BA
:10099000813F630395000290B2402244924441019A
:1009A00082800841C205C1811305050A393B084010
:1009B00093D504011305450A093BD1BF084193F5BE
:1009C000F50F1305050A3D3B084093D5840093F5C8
:1009D000F50F1305450A3D33084093D5040193F5FF
:1009E000F50F1305850A393B084093D5840113059B
:1009F000C50A093B69BF029059BF01114AC852C4D8
:100A000056C206CE22CC26CA4EC6FD47AA8A2E89D9
:100A1000328A63F3B700029003A44A00854463045A
:100A2000940449C08947631EF40203A50A00B394E5
:100A300024011305050A953133E4A40063160A0066
:100A400093C4F4FF33F4A40003A50A00A2851305A0
:100A5000050A913103A50A001305050A3D39630112
:100A600085080290B5A883A70A00935949008A090E
:100A70009387070A9374F900BE99331494004E8546
:100A80004204B9314184631D0A001344F4FF698CA8
:100A9000420441804E85A2850D394E851539C1B776
:100AA000498CFDB783A70A00935939008A099387B7
:100AB000070A13797900BE99B39424014E85E204A4
:100AC000A931E18463170A0293C4F4FFE98C93F41B
:100AD000F40F4E85A6853D314E850539E31395F813
:100AE000F2406244D2444249B249224A924A0561E4
:100AF0008280C98CE9BF011122CC0946B71500706C
:100B00001385018306CE26CA02C6153305468145E4
:100B100013850183DD350146854513850183F13D4C
:100B20000546894513850183C93D01468D451385D9
:100B30000183E1351385818385461306A002B7053D
:100B40000070F53EB715008013858183938505B845
:100B50007939B7070A003EC6B7040A00B247FD1745
:100B60003EC6B247E34CF0FE1385018326C68D3B9B
:100B70009345F50013850183CD3BCDB70000000000
:100B80000D0A0D0A48656C6C6F20576F726C6421FA
:100B90000000000000000000000000000000000055
:040000058000000077
:00000001FF
