:100000006F0000486F00C007000000000000000003
:10001000F1A000000000000000000000000000004F
:1000200009A2000000000000000000000000000025
:1000300025AA0000000000000000000000000000F1
:1000400000000000ADA2000075A20000000000004A
:1000500000000000000000000000000000000000A0
:1000600000000000D9AA000021AC0000A9AC0000EB
:1000700071AC0000F9AC000005A60000000085A6E8
:1000800019710100130000001300000013000000AC
:1000900006C00AC20EC412C616C81ACA1ECC22CE88
:1000A00026D02AD22ED432D636D83ADA3EDC42DEF8
:1000B000C6C0CAC2CEC4D2C6D6C8DACADECCE2CE68
:1000C000E6D0EAD2EED4F2D6F6D8FADAFEDC732520
:1000D0002034F3251034EF006051A9A6197106C031
:1000E0000AC20EC412C616C81ACA1ECC22CE26D008
:1000F0002AD22ED432D636D83ADA3EDC42DEC6C018
:10010000CAC2CEC4D2C6D6C8DACADECCE2CEE6D0E7
:10011000EAD2EED4F2D6F6D8FADAFEDCEF00C04B23
:1001200011A6197106C00AC20EC412C616C81ACA90
:100130001ECC22CE26D02AD22ED432D636D83ADAC7
:100140003EDC42DEC6C0CAC2CEC4D2C6D6C8DACAF7
:10015000DECCE2CEE6D0EAD2EED4F2D6F6D8FADAA7
:10016000FEDCEF0040437DAC197106C00AC20EC42C
:1001700012C616C81ACA1ECC22CE26D02AD22ED417
:1001800032D636D83ADA3EDC42DEC6C0CAC2CEC467
:10019000D2C6D6C8DACADECCE2CEE6D0EAD2EED4F7
:1001A000F2D6F6D8FADAFEDCEF00A07EA5AC197123
:1001B00006C00AC20EC412C616C81ACA1ECC22CE67
:1001C00026D02AD22ED432D636D83ADA3EDC42DED7
:1001D000C6C0CAC2CEC4D2C6D6C8DACADECCE2CE47
:1001E000E6D0EAD2EED4F2D6F6D8FADAFEDCEF00A8
:1001F000A07C0DAC197106C00AC20EC412C616C886
:100200001ACA1ECC22CE26D02AD22ED432D636D826
:100210003ADA3EDC42DEC6C0CAC2CEC4D2C6D6C8B6
:10022000DACADECCE2CEE6D0EAD2EED4F2D6F6D806
:10023000FADAFEDCEF006078F5A2197106C00AC296
:100240000EC412C616C81ACA1ECC22CE26D02AD276
:100250002ED432D636D83ADA3EDC42DEC6C0CAC226
:10026000CEC4D2C6D6C8DACADECCE2CEE6D0EAD256
:10027000EED4F2D6F6D8FADAFEDCEF0020745DA2F6
:10028000197106C00AC20EC412C616C81ACA1ECCFC
:1002900022CE26D02AD22ED432D636D83ADA3EDC36
:1002A00042DEC6C0CAC2CEC4D2C6D6C8DACADECC06
:1002B000E2CEE6D0EAD2EED4F2D6F6D8FADAFEDC16
:1002C000EF00E06F85A2197106C00AC20EC412C603
:1002D00016C81ACA1ECC22CE26D02AD22ED432D686
:1002E00036D83ADA3EDC42DEC6C0CAC2CEC4D2C676
:1002F000D6C8DACADECCE2CEE6D0EAD2EED4F2D666
:10030000F6D8FADAFEDCEF00A06B29AA197106C054
:100310000AC20EC412C616C81ACA1ECC22CE26D0D5
:100320002AD22ED432D636D83ADA3EDC42DEC6C0E5
:10033000CAC2CEC4D2C6D6C8DACADECCE2CEE6D0B5
:10034000EAD2EED4F2D6F6D8FADAFEDCEF00606735
:10035000D1A8197106C00AC20EC412C616C81ACA9C
:100360001ECC22CE26D02AD22ED432D636D83ADA95
:100370003EDC42DEC6C0CAC2CEC4D2C6D6C8DACAC5
:10038000DECCE2CEE6D0EAD2EED4F2D6F6D8FADA75
:10039000FEDCEF00206379A0197106C00AC20EC40A
:1003A00012C616C81ACA1ECC22CE26D02AD22ED4E5
:1003B00032D636D83ADA3EDC42DEC6C0CAC2CEC435
:1003C000D2C6D6C8DACADECCE2CEE6D0EAD2EED4C5
:1003D000F2D6F6D8FADAFEDCEF00E05EA1A01971E1
:1003E00006C00AC20EC412C616C81ACA1ECC22CE35
:1003F00026D02AD22ED432D636D83ADA3EDC42DEA5
:10040000C6C0CAC2CEC4D2C6D6C8DACADECCE2CE14
:10041000E6D0EAD2EED4F2D6F6D8FADAFEDCEF0075
:10042000A05A09A082401241A2413242C242524324
:10043000E243724482541255A2553256C256525764
:10044000E257725886481649A649364AC64A564B5C
:10045000E64B764C865C165DA65D365EC65E565FE4
:10046000E65F09617300203000000000000000001A
:10047000000000000000000000000000000000007C
:10048000735000307350403097000000938080B765
:10049000F322103093F2120063940202F3225030E0
:1004A00093F232000543639D6200F322503093F2D1
:1004B000C2FF17030000130323B56396620439A03B
:1004C00097020000938242B47390523017070000E5
:1004D00013074755970700009387C7541708000074
:1004E000130848556308F70063860701970000006A
:1004F000E780E007971100009381C1D2312013817A
:1005000001C36F00E01602908682938701821388F0
:100510000183638307012528938701811388018262
:10052000638A07012D2093870183138801836383E6
:100530000701312813870181938701811388018185
:100540006305F700638307010D2096808280636F47
:10055000F802B368F80093F838006349100323A049
:1005600007009107E3CD07FF82806361F802B3685B
:10057000F80093F83800634B10018328070023A08C
:10058000170191071107E3CA07FF11A001A082809C
:10059000F36704308280411122C406C613040008A8
:1005A000F33744301D2137C700029385018183272B
:1005B00087FF8326C7FF9841CC41374600023E970C
:1005C000B337F700AE96B69718C25CC273244430B6
:1005D000B240224441018280411106C67526196746
:1005E0001C53B240F59B1CD3410182806354050625
:1005F00006050581AD476313F50061AE8D476313B2
:10060000F500D9BF9D476313F50071B7E147631348
:10061000F5006DA6E5476313F50055A6E94763139A
:10062000F50079AEED476313F50061AEF147631352
:10063000F50049AEF5476313F50071A6F94763135A
:10064000F50059A6C1476313F500BDA6C54763135E
:10065000F500A5A6F3274034F3273034F3275030B4
:10066000F3270034F3270030F32710340290828000
:10067000B1AE828031BF0CC1828008418280368E4B
:10068000331EBE00337ECE0003230500B28393C326
:10069000F3FF337373003363C3012320650082804B
:1006A0000841718D3355B50082802310B5008280DA
:1006B000031505008280368E331EBE00337ECE00C9
:1006C00003130500B28393C3F3FF337373003363E3
:1006D000C30123106500828003150500718D335519
:1006E000B50082802300B50082800305050082806A
:1006F000368E331EBE00337ECE0003030500B28368
:1007000093C3F3FF337373003363C30123006500A6
:10071000828003050500718D3355B50082807971A3
:1007200022D44AD04ECE06D626D22E84B28936891D
:1007300011E10290A54763F32701029011E30290B3
:100740009304840000C181460946854526853AC642
:100750003D37814605468145268515378545130574
:100760000401113FCA851305C40031373247228581
:10077000BA85113781466383090085462254B250F9
:100780000259F24926859254114689454561C5BDF5
:1007900011E1029008418546054681452105C5B510
:1007A00011E1029008418546094685452105C1BDF4
:1007B00011E1029008418545410575BD411122C4F2
:1007C0002A8426C24AC006C60CC0AE8450C1138912
:1007D00005082685814591043137E39C24FF5C4060
:1007E00005476380E702A1C30947639BE70608400A
:1007F0002244B24092440249FD55130505084101C7
:100800009DBD0840C1649385F4FF13050508713D43
:1008100008402244B24002499385F4FF92441305F4
:100820004508410159B508409305F00F1305050827
:10083000553D08409305F00F130545086535084000
:100840009305F00F13058508713D08402244B2401E
:10085000924402499305F00F1305C508410159B5AB
:100860000290B240224492440249410182805C419C
:10087000411122C406C626C24AC005472A84638F96
:10088000E70095CF09476396E70608412244B24046
:10089000924402491305050A4101C5B308411305F5
:1008A000050A3935AA8408401305450A1135420561
:1008B000458DB24022449244024941018280084160
:1008C0001305050AF533AA8408401305450ACD33FC
:1008D0002A89084022091305850AD93B4205336954
:1008E000A9000840B36499001305C50AD133620515
:1008F000C1B70290014575BF5C41411122C426C2B7
:1009000006C605472A84AE846384E7029DCF094763
:10091000639AE70608411305050AB13B2285813F2A
:10092000630395000290B2402244924441018280C8
:100930000841C205C1811305050A853B084093D5CE
:1009400004011305450A9533D1BF084193F5F50F0E
:100950001305050A413B084093D5840093F5F50F34
:100960001305450A4133084093D5040193F5F50F6B
:100970001305850A853B084093D584011305C50AF4
:10098000953369BF029059BF19671C53F59B1CD35F
:100990008280970700009387E7089843411106C6B5
:1009A0001347F70098C38C4313854182B137B24097
:1009B000138501824101EDBB82808280828082802A
:1009C000828082808280828082808280411109467A
:1009D000B71500701385418206C6CD338145138556
:1009E0004182193F130700208D460146B72500704C
:1009F000138501822D33138501825D3313850182B6
:100A0000413B8D39F32740303717003F13070780EC
:100A1000D98FF3A7473001A00000000000000000BC
:100A200003000000000000000000000000000000C3
:040000058000000077
:00000001FF
